S016000067616D65636F6E74726F6C6C65722E7372656330
S11300000C94B6000C94D3000C94D3000C94D3003D
S11300100C94D3000C94D3000C94D3000C94D30010
S11300200C94D3000C94D3000C94D3000C94D30000
S11300300C94D3000C94D3000C94D3000C94D300F0
S11300400C94D3000C94D3000C94D3000C94D300E0
S11300500C94D3000C94D3000C94D3000C94D300D0
S11300600C94D3000C94D3000C94D3000C94D300C0
S11300700C94D3000C94D3000C94D3000C94D300B0
S11300800C94D3000C94D3000C94D3000C94D300A0
S11300900C94D3000C94D3000C94D3000C94D30090
S11300A00C94D3000C94D3000C94D3000C94D30080
S11300B00C94D3000C94D3000C94D3000C94D30070
S11300C00C94D3000C94D3000C94D3000C94D30060
S11300D00C94D3000C94D3000C94D3000C94D30050
S11300E00C94D3000C94D3000C94D3000C94D30040
S11300F00C94D3000C94D3000C94D3000C94D30030
S11301000C94D3000C94D3000C94D3000C94D3001F
S11301100C94D3000C94D3000C94D3000C94D3000F
S11301200C94D3000C94D3000C94D3000C94D300FF
S11301300C94D3000C94D3000C94D3000C94D300EF
S11301400C94D3000C94D3000C94D3000C94D300DF
S11301500C94D3000C94D3000C94D3000C94D300CF
S11301600C94D3000C94D3000C94D30011241FBE20
S1130170CFEFCDBFD7E2DEBF10E2A0E0B0E2E6E908
S1130180FDE002C005900D92AC31B107D9F720E231
S1130190ACE1B0E201C01D92AE32B207E1F70E94B9
S11301A0FD000C94C9060C940000CF93DF93CDB7E7
S11301B0DEB70000DF91CF910895CF93DF93CDB7E1
S11301C0DEB70000DF91CF9108958BEC809352004D
S11301D088E0809350008091510083FFFCCF88ED2C
S11301E084BF83E0809340000895CF93DF93CDB71D
S11301F0DEB70000DF91CF910895CF93DF93CDB7A1
S1130200DEB72E97CDBFDEBF0E94E5000E94250217
S11302100E94DD000E94D5000E94BA010E94E30101
S11302200E94F5000E94DB0180EA90E020EA30E0C1
S1130230F90122812760FC0122838FE390E02FE300
S113024030E0F90120812068FC01208380E090E007
S1130250AAEFB3E489839A83AB83BC8320E030E0C4
S11302604AE755E469817A818B819C810E9420034D
S1130270DC01CB018D839E83AF83B88720E030E01F
S113028040E85FE36D817E818F8198850E949A02A8
S113029088232CF481E090E089879A873FC020E08E
S11302A03FEF4FE757E46D817E818F8198850E94EF
S11302B01B0318164CF520E030E040E251E469815C
S11302C07A818B819C810E942003DC01CB01BC01DB
S11302D0CD010E949F02DC01CB0189879A870FC060
S11302E080E991E08B879C878B859C850197F1F74A
S11302F08B879C8789859A85019789879A878985C1
S11303009A85892B69F714C06D817E818F819885C8
S11303100E949F02DC01CB0189879A8789859A858F
S11303208D879E878D859E850197F1F78D879E87A2
S11303300E940902882F90E0292F2F938F938EE03B
S113034090E2892F8F938EE090E28F938CE190E27C
S1130350892F8F938CE190E28F930E94E5030F9095
S11303600F900F900F900F900F908CE190E20E94ED
S1130370B503DECFCF93DF93CDB7DEB780E896E049
S11303802FE0FC01218380E896E020E4FC01208B2F
S113039080E896E020E4FC01218B80E896E020E4EC
S11303A0FC01228B80E896E020E4FC01238B000012
S11303B0DF91CF910895CF93DF93CDB7DEB70000DF
S11303C0DF91CF910895CF93DF93CDB7DEB780E669
S11303D096E021EFFC01228380E696E028E5FC010B
S11303E0208B80E696E028E5FC01248B80E696E0ED
S11303F028E5FC01258B80E696E028E5FC01268BA8
S113040080E696E028E5FC01278B0000DF91CF9180
S11304100895CF93DF93CDB7DEB780E696E0FC0175
S11304208085882F90E0807F99279595879595956D
S1130430879595958795282F80E696E0FC01808521
S11304408170822BDF91CF910895CF93DF93CDB745
S1130450DEB780E696E028E0FC01218380E696E0A2
S113046024E0FC01228380EA99E0FC01138280EA03
S113047099E028E1FC01248380EA99E023E0FC016F
S1130480258380EA99E025EEFC01268380EA99E041
S11304902CEBFC01278380E090E280932A20909348
S11304A02B2080E090E28093282090932920000064
S11304B0DF91CF910895CF93DF9300D01F92CDB7F2
S11304C0DEB789836A837B8380EA99E02981FC0112
S11304D02083000080EA99E0FC018181882F90E06C
S11304E080749927892BB1F380EA99E020E4FC0118
S11304F0218380E090E02396CDBFDEBFDF91CF91D2
S11305000895CF93DF9300D0CDB7DEB789839A8364
S1130510000080EA99E0FC0181818823D4F780EA15
S113052099E0FC018081882F90E00F900F90DF917B
S1130530CF9108950E94CE0208F481E008950E94AC
S1130540FA0288F09F5798F0B92F9927B751B0F065
S1130550E1F0660F771F881F991F1AF0BA95C9F743
S113056014C0B13091F00E941403B1E008950C94CA
S11305701403672F782F8827B85F39F0B93FCCF37D
S1130580869577956795B395D9F73EF490958095C0
S1130590709561957F4F8F4F9F4F0895990F000875
S11305A0550FAA0BE0E8FEEF16161706E807F90741
S11305B0C0F012161306E407F50798F0621B730BDC
S11305C0840B950B39F40A2661F0232B242B252B5D
S11305D021F408950A2609F4A140A6958FEF811D00
S11305E0811D089557FD9058440F551F59F05F3FE2
S11305F071F04795880F97FB991F61F09F3F79F041
S113060087950895121613061406551FF2CF4695C2
S1130610F1DF08C0161617061806991FF1CF869544
S11306207105610508940895E894BB276627772728
S1130630CB0197F908950E94CE0208F48FEF089534
S11306400E9433030C94A4030E94960338F00E9482
S11306509D0320F0952311F00C948D030C949303C7
S113066011240C9415030E94F20270F3959FC1F3B8
S1130670950F50E0551F629FF001729FBB27F00D4C
S1130680B11D639FAA27F00DB11DAA1F649F6627A1
S1130690B00DA11D661F829F2227B00DA11D621FF0
S11306A0739FB00DA11D621F839FA00D611D221FAA
S11306B0749F3327A00D611D231F849F600D211D8E
S11306C0822F762F6A2F11249F5750409AF0F1F011
S11306D088234AF0EE0FFF1FBB1F661F771F881F7A
S11306E091505040A9F79E3F510580F00C948D0322
S11306F00C9415035F3FE4F3983ED4F38695779505
S11307006795B795F795E7959F5FC1F7FE2B880F1F
S1130710911D9695879597F9089597F99F6780E8B5
S113072070E060E008959FEF80EC089500240A943F
S11307301616170618060906089500240A941216B8
S11307401306140605060895092E0394000C11F4EB
S1130750882352F0BB0F40F4BF2B11F460FF04C098
S11307606F5F7F4F8F4F9F4F08950F931F93CF93CA
S1130770DF93E0912A20F0912B20238121FF1BC0DD
S11307808C01D0E0C0E0F80181918F0160912A20B2
S113079070912B20DB011896ED91FC911997882319
S11307A031F00995892B79F3DFEFCFEFECCF8AE0B5
S11307B00995892B19F08FEF9FEF02C08D2F9C2F85
S11307C0DF91CF911F910F910895AEE0B0E0EBEE71
S11307D0F3E00C94A6060D891E8986E08C830983B8
S11307E01A838FEF9FE78D839E83AE01475E5F4F31
S11307F06F89788DCE0101960E940704EF81F885F8
S1130800E00FF11F10822E96E4E00C94BF06ABE0DB
S1130810B0E0EDE0F4E00C9498066C017B018A01F1
S1130820FC0116821782838181FFCCC1CE0101961F
S11308303C01F6019381F70193FD859193FF81912A
S11308407F01882309F4BAC1853239F493FD859177
S113085093FF81917F01853229F4B60190E00E94D3
S1130860FE05E7CF912C212C312CFFE1F315D8F0B4
S11308708B3279F038F4803279F08332A1F4232D6D
S113088020611DC08D3261F0803369F4232D216015
S113089016C0832D8260382EE32DE4603E2E2AC0DC
S11308A0F32DF8601DC037FC2DC020ED280F2A3031
S11308B040F08E32B9F436FC81C1232D2064322EEF
S11308C019C036FE06C08AE0989E200D1124922E8F
S11308D011C0EAE02E9E200D1124222EF32DF06289
S11308E03F2E08C08C3621F4832D8068382E02C038
S11308F0883641F4F70193FD859193FF81917F013F
S11309008111B3CF982F9F7D9554933028F40C5FB9
S11309101F4F9FE399830DC0833631F0833771F005
S1130920833509F059C021C0F801808189830E5FA5
S11309301F4F88248394912C530113C02801F2E0A3
S11309404F0E511CF801A080B18036FE03C0692D02
S113095070E002C06FEF7FEFC5010E94F3054C0108
S11309608201F32DFF773F2E16C0280122E0420EAC
S1130970511CF801A080B18036FE03C0692D70E0DF
S113098002C06FEF7FEFC5010E94E8054C01F32D13
S1130990F0683F2E820133FC1BC0822D90E0881644
S11309A09906B0F4B60180E290E00E94FE052A9414
S11309B0F4CFF50137FC859137FE81915F01B601D3
S11309C090E00E94FE0521102A9421E0821A9108E9
S11309D08114910471F7E8C0843611F0893641F529
S11309E0F80137FE07C060817181828193810C5FB9
S11309F01F4F08C060817181072E000C880B990B72
S1130A000E5F1F4FF32DFF763F2E97FF09C0909581
S1130A108095709561957F4F8F4F9F4FF0683F2E63
S1130A202AE030E0A3010E943A06882E861845C0C9
S1130A30853731F4232D2F7EB22E2AE030E025C0F5
S1130A40932D997FB92E8F36C1F018F4883579F03B
S1130A50B5C0803719F0883721F0B0C0E92FE061C4
S1130A60BE2EB4FE0DC0FB2DF460BF2E09C034FEB3
S1130A700AC0292F2660B22E06C028E030E005C047
S1130A8020E130E002C020E132E0F801B7FE07C007
S1130A9060817181828193810C5F1F4F06C06081E8
S1130AA0718180E090E00E5F1F4FA3010E943A061F
S1130AB0882E8618FB2DFF773F2E36FE0DC0232D82
S1130AC02E7FA22E891458F434FE0BC032FC09C0C8
S1130AD0832D8E7EA82E05C0B82CA32C03C0B82C61
S1130AE001C0B92CA4FE0FC0FE01E80DF11D8081E8
S1130AF0803321F49A2D997EA92E09C0A2FE06C046
S1130B00B394B39404C08A2D867809F0B394A3FCFB
S1130B1011C0A0FE06C0B21488F4280C922C9B18B5
S1130B200EC0B21460F4B60180E290E00E94FE05AB
S1130B30B394F7CFB21418F42B1802C0982C212CBC
S1130B40A4FE10C0B60180E390E00E94FE05A2FE60
S1130B5017C0A1FC03C088E790E002C088E590E0DC
S1130B60B6010CC08A2D867859F0A1FE02C08BE232
S1130B7001C080E2A7FC8DE2B60190E00E94FE0570
S1130B80891438F4B60180E390E00E94FE059A943B
S1130B90F7CF8A94F301E80DF11D8081B60190E04E
S1130BA00E94FE058110F5CF222009F442CEB60141
S1130BB080E290E00E94FE052A94F6CFF601868139
S1130BC0978102C08FEF9FEF2B96E2E10C94B10660
S1130BD0FC010590615070400110D8F78095909504
S1130BE08E0F9F1F0895FC01615070400190011009
S1130BF0D8F7809590958E0F9F1F08950F931F939C
S1130C00CF93DF93FB01238121FD03C08FEF9FEF7F
S1130C102CC022FF16C0468157812481358142179A
S1130C20530744F4A081B1819D012F5F3F4F20837E
S1130C3031838C93268137812F5F3F4F26833783FF
S1130C4014C08B01EC01FB010084F185E02D0995B2
S1130C50892BE1F6D80116968D919C9117970196F0
S1130C6016968D939C931797CE01DF91CF911F9188
S1130C700F910895FA01AA27283051F1203181F10A
S1130C80E8946F936E7F6E5F7F4F8F4F9F4FAF4F90
S1130C90B1E03ED0B4E03CD0670F781F891F9A1FA3
S1130CA0A11D680F791F8A1F911DA11D6A0F711D57
S1130CB0811D911DA11D20D009F468943F912AE063
S1130CC0269F11243019305D3193DEF6CF0108954B
S1130CD0462F4770405D4193B3E00FD0C9F7F6CF7C
S1130CE0462F4F70405D4A3318F0495D31FD405244
S1130CF0419302D0A9F7EACFB4E0A69597958795DA
S1130D0077956795BA95C9F70097610571050895B8
S1130D109B01AC010A2E0694579547953795279564
S1130D20BA95C9F7620F731F841F951FA01D0895FC
S1130D302F923F924F925F926F927F928F929F92E7
S1130D40AF92BF92CF92DF92EF92FF920F931F93D5
S1130D50CF93DF93CDB7DEB7CA1BDB0BCDBFDEBFAE
S1130D6009942A88398848885F846E847D848C84B9
S1130D709B84AA84B984C884DF80EE80FD800C81C2
S1130D801B81AA81B981CE0FD11DCDBFDEBFED017C
S1090D900895F894FFCF62
S1130D9600000002000000005B028102000073777D
S10F0DA66974636865733A2025640D00CD
S9030000FC
