S016000067616D65636F6E74726F6C6C65722E7372656330
S11300000C94B6000C94D3000C94D3000C94D3003D
S11300100C94D3000C94D3000C94D3000C94D30010
S11300200C94D3000C94D3000C94D3000C94D30000
S11300300C94D3000C94D3000C94D3000C94D300F0
S11300400C94D3000C94D3000C94D3000C94D300E0
S11300500C94D3000C94D3000C94D3000C94D300D0
S11300600C94D3000C94D3000C94D3000C94D300C0
S11300700C94D3000C94D3000C94D3000C94D300B0
S11300800C94D3000C94D3000C94D3000C94D300A0
S11300900C94D3000C94D3000C94D3000C94D30090
S11300A00C94D3000C94D3000C94D3000C94D30080
S11300B00C94D3000C94D3000C94D3000C94D30070
S11300C00C94D3000C94D3000C94D3000C94D30060
S11300D00C94D3000C94D3000C94D3000C94D30050
S11300E00C94D3000C94D3000C94D3000C94D30040
S11300F00C94D3000C94D3000C94D3000C94D30030
S11301000C94D3000C94D3000C94D3000C94D3001F
S11301100C94D3000C94D3000C94D3000C94D3000F
S11301200C94D3000C94D3000C94D3000C94D300FF
S11301300C94D3000C94D3000C94D3000C94D300EF
S11301400C94D3000C94D3000C94D3000C94D300DF
S11301500C94D3000C94D3000C94D3000C94D300CF
S11301600C94D3000C94D3000C94D30011241FBE20
S1130170CFEFCDBFD7E2DEBF10E2A0E0B0E2EAEFFE
S1130180F7E002C005900D92AE30B107D9F720E236
S1130190AEE0B0E201C01D92A431B207E1F70E94C3
S11301A0FD000C94FB030C940000CF93DF93CDB7B8
S11301B0DEB70000DF91CF910895CF93DF93CDB7E1
S11301C0DEB70000DF91CF9108958BEC809352004D
S11301D088E0809350008091510083FFFCCF88ED2C
S11301E084BF83E0809340000895CF93DF93CDB71D
S11301F0DEB70000DF91CF910895CF93DF93CDB7A1
S1130200DEB76E97CDBFDEBF0E94E5000E946B0291
S11302100E94DD000E94D5000E9422020E94630217
S11302200E94F5000E945B0280EA90E020EA30E040
S1130230F90122812760FC0122838FE390E02FE300
S113024030E0F90120812068FC01208380E090E007
S1130250AAEFB3E48F839887A987BA8720E030E0B8
S11302604AE755E46F81788589859A850E946603FB
S1130270DC01CB018B879C87AD87BE8720E030E013
S113028040E85FE36B857C858D859E850E94E00256
S113029088232CF481E090E08F87988B3FC020E086
S11302A03FEF4FE757E46B857C858D859E850E94E3
S11302B0610318164CF520E030E040E251E46F8110
S11302C0788589859A850E946603DC01CB01BC018F
S11302D0CD010E94E502DC01CB018F87988B0FC012
S11302E080E991E0898B9A8B89899A890197F1F742
S11302F0898B9A8B8F85988901978F87988B8F85A7
S11303009889892B69F714C06B857C858D859E85BA
S11303100E94E502DC01CB018F87988B8F85988939
S11303208B8B9C8B8B899C890197F1F78B8B9C8B96
S113033019821A8281C081E090E0098002C0880F8E
S1130340991F0A94E2F70E94430280E090E0AAEF2A
S1130350B3E48B839C83AD83BE8320E030E04AE723
S113036055E46B817C818D819E810E946603DC0152
S1130370CB018D8B9E8BAF8BB88F20E030E040E8B3
S11303805FE36D897E898F89988D0E94E0028823BE
S11303902CF481E090E0898F9A8F3FC020E03FEFFA
S11303A04FE757E46D897E898F89988D0E94610398
S11303B018164CF520E030E040E251E46B817C817A
S11303C08D819E810E946603DC01CB01BC01CD01BD
S11303D00E94E502DC01CB01898F9A8F0FC080E96E
S11303E091E08B8F9C8F8B8D9C8D0197F1F78B8F78
S11303F09C8F898D9A8D0197898F9A8F898D9A8D7B
S1130400892B69F714C06D897E898F89988D0E9424
S1130410E502DC01CB01898F9A8F898D9A8D8D8FAE
S11304209E8F8D8D9E8D0197F1F78D8F9E8F898183
S11304309A81019689839A8389819A8104970CF41D
S11304407ACF76CFCF93DF93CDB7DEB780E896E04F
S11304502FE0FC01218380E896E028E5FC01208B55
S113046080E896E028E5FC01218B80E896E028E509
S1130470FC01228B80E896E028E5FC01238B000038
S1130480DF91CF910895CF93DF931F92CDB7DEB75D
S1130490898380E896E02981422F4F7020E836E076
S11304A0F9012481207F242BFC01248300000F9078
S11304B0DF91CF910895CF93DF93CDB7DEB70000DE
S11304C0DF91CF910895CF93DF93CDB7DEB70000CE
S11304D0DF91CF910895CF93DF93CDB7DEB780E658
S11304E096E028E0FC01218380E696E024E0FC010C
S11304F0228380EA99E0FC01138280EA99E028E1F2
S1130500FC01248380EA99E023E0FC01258380EA4E
S113051099E025EEFC01268380EA99E02CEBFC01AE
S1130520278380E090E2809310209093112080E054
S113053090E280930E2090930F200000DF91CF91E2
S11305400895CF93DF9300D01F92CDB7DEB7898390
S11305506A837B8380EA99E02981FC01208300007F
S113056080EA99E0FC018181882F90E080749927CA
S1130570892BB1F380EA99E020E4FC01218380E037
S113058090E02396CDBFDEBFDF91CF910895CF9346
S1130590DF9300D0CDB7DEB789839A83000080EA69
S11305A099E0FC0181818823D4F780EA99E0FC0179
S11305B08081882F90E00F900F90DF91CF91089564
S11305C00E94140308F481E008950E94400388F017
S11305D09F5798F0B92F9927B751B0F0E1F0660F03
S11305E0771F881F991F1AF0BA95C9F714C0B13044
S11305F091F00E945A03B1E008950C945A03672FB6
S1130600782F8827B85F39F0B93FCCF38695779572
S11306106795B395D9F73EF490958095709561955B
S11306207F4F8F4F9F4F0895990F0008550FAA0BC6
S1130630E0E8FEEF16161706E807F907C0F01216F1
S11306401306E407F50798F0621B730B840B950BF4
S113065039F40A2661F0232B242B252B21F4089549
S11306600A2609F4A140A6958FEF811D811D0895E6
S113067057FD9058440F551F59F05F3F71F047954F
S1130680880F97FB991F61F09F3F79F08795089534
S1130690121613061406551FF2CF4695F1DF08C053
S11306A0161617061806991FF1CF86957105610570
S11306B008940895E894BB2766277727CB0197F918
S11306C008950E94140308F48FEF08950E9479039B
S11306D00C94EA030E94DC0338F00E94E30320F048
S11306E0952311F00C94D3030C94D90311240C9486
S11306F05B030E94380370F3959FC1F3950F50E09C
S1130700551F629FF001729FBB27F00DB11D639FBF
S1130710AA27F00DB11DAA1F649F6627B00DA11D65
S1130720661F829F2227B00DA11D621F739FB00D0B
S1130730A11D621F839FA00D611D221F749F33277B
S1130740A00D611D231F849F600D211D822F762F14
S11307506A2F11249F5750409AF0F1F088234AF0F1
S1130760EE0FFF1FBB1F661F771F881F915050405D
S1130770A9F79E3F510580F00C94D3030C945B03BE
S11307805F3FE4F3983ED4F3869577956795B795E4
S1130790F795E7959F5FC1F7FE2B880F911D9695FE
S11307A0879597F9089597F99F6780E870E060E06E
S11307B008959FEF80EC089500240A9416161706F6
S11307C018060906089500240A941216130614063E
S11307D005060895092E0394000C11F4882352F0A1
S11307E0BB0F40F4BF2B11F460FF04C06F5F7F4F59
S10D07F08F4F9F4F0895F894FFCF38
S11107FA0000000200000000A102C70200007F
S9030000FC
