:100000000C94B6000C94D3000C94D3000C94D30041
:100010000C94D3000C94D3000C94D3000C94D30014
:100020000C94D3000C94D3000C94D3000C94D30004
:100030000C94D3000C94D3000C94D3000C94D300F4
:100040000C94D3000C94D3000C94D3000C94D300E4
:100050000C94D3000C94D3000C94D3000C94D300D4
:100060000C94D3000C94D3000C94D3000C94D300C4
:100070000C94D3000C94D3000C94D3000C94D300B4
:100080000C94D3000C94D3000C94D3000C94D300A4
:100090000C94D3000C94D3000C94D3000C94D30094
:1000A0000C94D3000C94D3000C94D3000C94D30084
:1000B0000C94D3000C94D3000C94D3000C94D30074
:1000C0000C94D3000C94D3000C94D3000C94D30064
:1000D0000C94D3000C94D3000C94D3000C94D30054
:1000E0000C94D3000C94D3000C94D3000C94D30044
:1000F0000C94D3000C94D3000C94D3000C94D30034
:100100000C94D3000C94D3000C94D3000C94D30023
:100110000C94D3000C94D3000C94D3000C94D30013
:100120000C94D3000C94D3000C94D3000C94D30003
:100130000C94D3000C94D3000C94D3000C94D300F3
:100140000C94D3000C94D3000C94D3000C94D300E3
:100150000C94D3000C94D3000C94D3000C94D300D3
:100160000C94D3000C94D3000C94D30011241FBE24
:10017000CFEFCDBFD7E2DEBF10E2A0E0B0E2EEE706
:10018000F7E002C005900D92AE30B107D9F720E23A
:10019000AEE0B0E201C01D92A431B207E1F70E94C7
:1001A000FD000C94BD030C940000CF93DF93CDB7FA
:1001B000DEB70000DF91CF910895CF93DF93CDB7E5
:1001C000DEB70000DF91CF9108958BEC8093520051
:1001D00088E0809350008091510083FFFCCF88ED30
:1001E00084BF83E0809340000895CF93DF93CDB721
:1001F000DEB70000DF91CF910895CF93DF93CDB7A5
:10020000DEB72E97CDBFDEBF0E94E5000E94F10150
:100210000E94DD000E94D5000E94A2010E94CB0135
:100220000E94F5000E94C30180EA90E020EA30E0DD
:10023000F90122812760FC0122838FE390E02FE304
:1002400030E0F90120812068FC01208380E090E00B
:10025000AAEFB3E489839A83AB83BC8320E030E0C8
:100260004AE755E469817A818B819C810E94EC0286
:10027000DC01CB018D839E83AF83B88720E030E023
:1002800040E85FE36D817E818F8198850E946602E0
:1002900088232CF481E090E089879A873FC020E092
:1002A0003FEF4FE757E46D817E818F8198850E94F3
:1002B000E70218164CF520E030E040E251E4698195
:1002C0007A818B819C810E94EC02DC01CB01BC0114
:1002D000CD010E946B02DC01CB0189879A870FC098
:1002E00080E991E08B879C878B859C850197F1F74E
:1002F0008B879C8789859A85019789879A878985C5
:100300009A85892B69F714C06D817E818F819885CC
:100310000E946B02DC01CB0189879A8789859A85C7
:100320008D879E878D859E850197F1F78D879E87A6
:100330008091102090911120BC0185E590E00E94F1
:100340008103F6CFCF93DF93CDB7DEB780E896E099
:100350002FE0FC01218380E896E020E4FC01208B63
:1003600080E896E020E4FC01218B80E896E020E420
:10037000FC01228B80E896E020E4FC01238B000046
:10038000DF91CF910895CF93DF93CDB7DEB7000013
:10039000DF91CF910895CF93DF93CDB7DEB780E69D
:1003A00096E021EFFC01228380E696E028E5FC013F
:1003B000208B80E696E028E5FC01248B80E696E021
:1003C00028E5FC01258B80E696E028E5FC01268BDC
:1003D00080E696E028E5FC01278B0000DF91CF91B5
:1003E0000895CF93DF93CDB7DEB780E496E028E0A1
:1003F000FC01218380E496E024E0FC01228380EA72
:1004000098E0FC01138280EA98E028E1FC01248353
:1004100080EA98E023E0FC01258380EA98E025EE5D
:10042000FC01268380EA98E02CEBFC01278380E026
:1004300090E2809310209093112080E090E28093CE
:100440000E2090930F200000DF91CF910895CF935D
:10045000DF9300D01F92CDB7DEB789836A837B8399
:1004600080EA98E02981FC012083000080EA98E07E
:10047000FC018181882F90E080749927892BB1F34A
:1004800080EA98E020E4FC01218380E090E023965C
:10049000CDBFDEBFDF91CF910895CF93DF9300D022
:1004A000CDB7DEB789839A83000080EA98E0FC012B
:1004B00081818823D4F780EA98E0FC018081882F2D
:1004C00090E00F900F90DF91CF9108950E949A02D3
:1004D00008F481E008950E94C60288F09F5798F0C2
:1004E000B92F9927B751B0F0E1F0660F771F881F39
:1004F000991F1AF0BA95C9F714C0B13091F00E9453
:10050000E002B1E008950C94E002672F782F88276D
:10051000B85F39F0B93FCCF3869577956795B39579
:10052000D9F73EF490958095709561957F4F8F4FE8
:100530009F4F0895990F0008550FAA0BE0E8FEEFB2
:1005400016161706E807F907C0F012161306E40797
:10055000F50798F0621B730B840B950B39F40A2690
:1005600061F0232B242B252B21F408950A2609F46E
:10057000A140A6958FEF811D811D089557FD9058CC
:10058000440F551F59F05F3F71F04795880F97FB57
:10059000991F61F09F3F79F0879508951216130611
:1005A0001406551FF2CF4695F1DF08C01616170640
:1005B0001806991FF1CF8695710561050894089575
:1005C000E894BB2766277727CB0197F908950E9407
:1005D0009A0208F48FEF08950E94FF020C947003B2
:1005E0000E94620338F00E94690320F0952311F005
:1005F0000C9459030C945F0311240C94E1020E94A3
:10060000BE0270F3959FC1F3950F50E0551F629F96
:10061000F001729FBB27F00DB11D639FAA27F00D5B
:10062000B11DAA1F649F6627B00DA11D661F829F82
:100630002227B00DA11D621F739FB00DA11D621F67
:10064000839FA00D611D221F749F3327A00D611D84
:10065000231F849F600D211D822F762F6A2F112466
:100660009F5750409AF0F1F088234AF0EE0FFF1F99
:10067000BB1F661F771F881F91505040A9F79E3FF0
:10068000510580F00C9459030C94E1025F3FE4F3B0
:10069000983ED4F3869577956795B795F795E79546
:1006A0009F5FC1F7FE2B880F911D9695879597F94F
:1006B000089597F99F6780E870E060E008959FEFE4
:1006C00080EC089500240A941616170618060906E9
:1006D000089500240A9412161306140605060895B8
:1006E000092E0394000C11F4882352F0BB0F40F440
:1006F000BF2B11F460FF04C06F5F7F4F8F4F9F4F80
:1007000008950F931F93CF93DF93FB01238121FD66
:1007100003C08FEF9FEF2CC022FF16C04681578188
:10072000248135814217530744F4A081B1819D0192
:100730002F5F3F4F208331838C93268137812F5F3A
:100740003F4F2683378314C08B01EC01FB010084EB
:10075000F185E02D0995892BE1F6D80116968D914A
:100760009C911797019616968D939C931797CE019F
:0E077000DF91CF911F910F910895F894FFCF64
:0E077E00000000020000000027024D020000F3
:00000001FF
